{
  "_format": "hh-sol-artifact-1",
  "contractName": "PaymentSplitter",
  "sourceName": "contracts/small/PaymentSplitter.sol",
  "abi": [
    {
      "inputs": [
        {
          "internalType": "address[]",
          "name": "payees",
          "type": "address[]"
        },
        {
          "internalType": "uint256[]",
          "name": "shares_",
          "type": "uint256[]"
        }
      ],
      "stateMutability": "payable",
      "type": "constructor"
    },
    {
      "anonymous": false,
      "inputs": [
        {
          "indexed": false,
          "internalType": "address",
          "name": "account",
          "type": "address"
        },
        {
          "indexed": false,
          "internalType": "uint256",
          "name": "shares",
          "type": "uint256"
        }
      ],
      "name": "PayeeAdded",
      "type": "event"
    },
    {
      "anonymous": false,
      "inputs": [
        {
          "indexed": false,
          "internalType": "address",
          "name": "from",
          "type": "address"
        },
        {
          "indexed": false,
          "internalType": "uint256",
          "name": "amount",
          "type": "uint256"
        }
      ],
      "name": "PaymentReceived",
      "type": "event"
    },
    {
      "anonymous": false,
      "inputs": [
        {
          "indexed": false,
          "internalType": "address",
          "name": "to",
          "type": "address"
        },
        {
          "indexed": false,
          "internalType": "uint256",
          "name": "amount",
          "type": "uint256"
        }
      ],
      "name": "PaymentReleased",
      "type": "event"
    },
    {
      "inputs": [
        {
          "internalType": "uint256",
          "name": "index",
          "type": "uint256"
        }
      ],
      "name": "payee",
      "outputs": [
        {
          "internalType": "address",
          "name": "",
          "type": "address"
        }
      ],
      "stateMutability": "view",
      "type": "function"
    },
    {
      "inputs": [
        {
          "internalType": "address payable",
          "name": "account",
          "type": "address"
        }
      ],
      "name": "release",
      "outputs": [],
      "stateMutability": "nonpayable",
      "type": "function"
    },
    {
      "inputs": [
        {
          "internalType": "address",
          "name": "account",
          "type": "address"
        }
      ],
      "name": "released",
      "outputs": [
        {
          "internalType": "uint256",
          "name": "",
          "type": "uint256"
        }
      ],
      "stateMutability": "view",
      "type": "function"
    },
    {
      "inputs": [
        {
          "internalType": "address",
          "name": "account",
          "type": "address"
        }
      ],
      "name": "shares",
      "outputs": [
        {
          "internalType": "uint256",
          "name": "",
          "type": "uint256"
        }
      ],
      "stateMutability": "view",
      "type": "function"
    },
    {
      "inputs": [],
      "name": "totalReleased",
      "outputs": [
        {
          "internalType": "uint256",
          "name": "",
          "type": "uint256"
        }
      ],
      "stateMutability": "view",
      "type": "function"
    },
    {
      "inputs": [],
      "name": "totalShares",
      "outputs": [
        {
          "internalType": "uint256",
          "name": "",
          "type": "uint256"
        }
      ],
      "stateMutability": "view",
      "type": "function"
    },
    {
      "stateMutability": "payable",
      "type": "receive"
    }
  ],
  "bytecode": "0x6080604052604051620016cc380380620016cc833981810160405281019062000029919062000523565b805182511462000070576040517f08c379a00000000000000000000000000000000000000000000000000000000081526004016200006790620007c3565b60405180910390fd5b6000825111620000b7576040517f08c379a0000000000000000000000000000000000000000000000000000000008152600401620000ae9062000807565b60405180910390fd5b60005b82518110156200016e576200015883828151811062000102577f4e487b7100000000000000000000000000000000000000000000000000000000600052603260045260246000fd5b602002602001015183838151811062000144577f4e487b7100000000000000000000000000000000000000000000000000000000600052603260045260246000fd5b60200260200101516200017760201b60201c565b8080620001659062000989565b915050620000ba565b50505062000a69565b600073ffffffffffffffffffffffffffffffffffffffff168273ffffffffffffffffffffffffffffffffffffffff161415620001ea576040517f08c379a0000000000000000000000000000000000000000000000000000000008152600401620001e190620007a1565b60405180910390fd5b6000811162000230576040517f08c379a0000000000000000000000000000000000000000000000000000000008152600401620002279062000829565b60405180910390fd5b6000600260008473ffffffffffffffffffffffffffffffffffffffff1673ffffffffffffffffffffffffffffffffffffffff1681526020019081526020016000205414620002b5576040517f08c379a0000000000000000000000000000000000000000000000000000000008152600401620002ac90620007e5565b60405180910390fd5b6004829080600181540180825580915050600190039060005260206000200160009091909190916101000a81548173ffffffffffffffffffffffffffffffffffffffff021916908373ffffffffffffffffffffffffffffffffffffffff16021790555080600260008473ffffffffffffffffffffffffffffffffffffffff1673ffffffffffffffffffffffffffffffffffffffff16815260200190815260200160002081905550806000546200036c9190620008ee565b6000819055507f40c340f65e17194d14ddddb073d3c9f888e3cb52b5aae0c6c7706b4fbc905fac8282604051620003a592919062000774565b60405180910390a15050565b6000620003c8620003c2846200087f565b6200084b565b90508083825260208201905082856020860282011115620003e857600080fd5b60005b858110156200041c57816200040188826200049b565b845260208401935060208301925050600181019050620003eb565b5050509392505050565b60006200043d6200043784620008ae565b6200084b565b905080838252602082019050828560208602820111156200045d57600080fd5b60005b858110156200049157816200047688826200050c565b84526020840193506020830192505060018101905062000460565b5050509392505050565b600081519050620004ac8162000a35565b92915050565b600082601f830112620004c457600080fd5b8151620004d6848260208601620003b1565b91505092915050565b600082601f830112620004f157600080fd5b81516200050384826020860162000426565b91505092915050565b6000815190506200051d8162000a4f565b92915050565b600080604083850312156200053757600080fd5b600083015167ffffffffffffffff8111156200055257600080fd5b6200056085828601620004b2565b925050602083015167ffffffffffffffff8111156200057e57600080fd5b6200058c85828601620004df565b9150509250929050565b620005a1816200094b565b82525050565b6000620005b6602c83620008dd565b91507f5061796d656e7453706c69747465723a206163636f756e74206973207468652060008301527f7a65726f206164647265737300000000000000000000000000000000000000006020830152604082019050919050565b60006200061e603283620008dd565b91507f5061796d656e7453706c69747465723a2070617965657320616e64207368617260008301527f6573206c656e677468206d69736d6174636800000000000000000000000000006020830152604082019050919050565b600062000686602b83620008dd565b91507f5061796d656e7453706c69747465723a206163636f756e7420616c726561647960008301527f20686173207368617265730000000000000000000000000000000000000000006020830152604082019050919050565b6000620006ee601a83620008dd565b91507f5061796d656e7453706c69747465723a206e6f207061796565730000000000006000830152602082019050919050565b600062000730601d83620008dd565b91507f5061796d656e7453706c69747465723a207368617265732061726520300000006000830152602082019050919050565b6200076e816200097f565b82525050565b60006040820190506200078b600083018562000596565b6200079a602083018462000763565b9392505050565b60006020820190508181036000830152620007bc81620005a7565b9050919050565b60006020820190508181036000830152620007de816200060f565b9050919050565b60006020820190508181036000830152620008008162000677565b9050919050565b600060208201905081810360008301526200082281620006df565b9050919050565b60006020820190508181036000830152620008448162000721565b9050919050565b6000604051905081810181811067ffffffffffffffff8211171562000875576200087462000a06565b5b8060405250919050565b600067ffffffffffffffff8211156200089d576200089c62000a06565b5b602082029050602081019050919050565b600067ffffffffffffffff821115620008cc57620008cb62000a06565b5b602082029050602081019050919050565b600082825260208201905092915050565b6000620008fb826200097f565b915062000908836200097f565b9250827fffffffffffffffffffffffffffffffffffffffffffffffffffffffffffffffff0382111562000940576200093f620009d7565b5b828201905092915050565b600062000958826200095f565b9050919050565b600073ffffffffffffffffffffffffffffffffffffffff82169050919050565b6000819050919050565b600062000996826200097f565b91507fffffffffffffffffffffffffffffffffffffffffffffffffffffffffffffffff821415620009cc57620009cb620009d7565b5b600182019050919050565b7f4e487b7100000000000000000000000000000000000000000000000000000000600052601160045260246000fd5b7f4e487b7100000000000000000000000000000000000000000000000000000000600052604160045260246000fd5b62000a40816200094b565b811462000a4c57600080fd5b50565b62000a5a816200097f565b811462000a6657600080fd5b50565b610c538062000a796000396000f3fe6080604052600436106100595760003560e01c8063191655871461009e5780633a98ef39146100c75780638b83209b146100f25780639852595c1461012f578063ce7c2ac21461016c578063e33b7de3146101a957610099565b36610099577f6ef95f06320e7a25a04a175ca677b7052bdd97131872c2192525a629f51be770333460405161008f929190610901565b60405180910390a1005b600080fd5b3480156100aa57600080fd5b506100c560048036038101906100c0919061069d565b6101d4565b005b3480156100d357600080fd5b506100dc610522565b6040516100e991906109aa565b60405180910390f35b3480156100fe57600080fd5b50610119600480360381019061011491906106c6565b61052b565b60405161012691906108bd565b60405180910390f35b34801561013b57600080fd5b5061015660048036038101906101519190610674565b610599565b60405161016391906109aa565b60405180910390f35b34801561017857600080fd5b50610193600480360381019061018e9190610674565b6105e2565b6040516101a091906109aa565b60405180910390f35b3480156101b557600080fd5b506101be61062b565b6040516101cb91906109aa565b60405180910390f35b6000600260008373ffffffffffffffffffffffffffffffffffffffff1673ffffffffffffffffffffffffffffffffffffffff1681526020019081526020016000205411610256576040517f08c379a000000000000000000000000000000000000000000000000000000000815260040161024d9061092a565b60405180910390fd5b60006001544761026691906109e1565b90506000600360008473ffffffffffffffffffffffffffffffffffffffff1673ffffffffffffffffffffffffffffffffffffffff16815260200190815260200160002054600054600260008673ffffffffffffffffffffffffffffffffffffffff1673ffffffffffffffffffffffffffffffffffffffff16815260200190815260200160002054846102f89190610a68565b6103029190610a37565b61030c9190610ac2565b90506000811415610352576040517f08c379a00000000000000000000000000000000000000000000000000000000081526004016103499061098a565b60405180910390fd5b80600360008573ffffffffffffffffffffffffffffffffffffffff1673ffffffffffffffffffffffffffffffffffffffff1681526020019081526020016000205461039d91906109e1565b600360008573ffffffffffffffffffffffffffffffffffffffff1673ffffffffffffffffffffffffffffffffffffffff16815260200190815260200160002081905550806001546103ee91906109e1565b60018190555080471015610437576040517f08c379a000000000000000000000000000000000000000000000000000000000815260040161042e9061096a565b60405180910390fd5b60008373ffffffffffffffffffffffffffffffffffffffff168260405161045d906108a8565b60006040518083038185875af1925050503d806000811461049a576040519150601f19603f3d011682016040523d82523d6000602084013e61049f565b606091505b50509050806104e3576040517f08c379a00000000000000000000000000000000000000000000000000000000081526004016104da9061094a565b60405180910390fd5b7fdf20fd1e76bc69d672e4814fafb2c449bba3a5369d8359adf9e05e6fde87b05684836040516105149291906108d8565b60405180910390a150505050565b60008054905090565b600060048281548110610567577f4e487b7100000000000000000000000000000000000000000000000000000000600052603260045260246000fd5b9060005260206000200160009054906101000a900473ffffffffffffffffffffffffffffffffffffffff169050919050565b6000600360008373ffffffffffffffffffffffffffffffffffffffff1673ffffffffffffffffffffffffffffffffffffffff168152602001908152602001600020549050919050565b6000600260008373ffffffffffffffffffffffffffffffffffffffff1673ffffffffffffffffffffffffffffffffffffffff168152602001908152602001600020549050919050565b6000600154905090565b60008135905061064481610bd8565b92915050565b60008135905061065981610bef565b92915050565b60008135905061066e81610c06565b92915050565b60006020828403121561068657600080fd5b600061069484828501610635565b91505092915050565b6000602082840312156106af57600080fd5b60006106bd8482850161064a565b91505092915050565b6000602082840312156106d857600080fd5b60006106e68482850161065f565b91505092915050565b6106f881610b44565b82525050565b61070781610af6565b82525050565b600061071a6026836109d0565b91507f5061796d656e7453706c69747465723a206163636f756e7420686173206e6f2060008301527f73686172657300000000000000000000000000000000000000000000000000006020830152604082019050919050565b6000610780603a836109d0565b91507f416464726573733a20756e61626c6520746f2073656e642076616c75652c207260008301527f6563697069656e74206d617920686176652072657665727465640000000000006020830152604082019050919050565b60006107e6601d836109d0565b91507f416464726573733a20696e73756666696369656e742062616c616e63650000006000830152602082019050919050565b6000610826602b836109d0565b91507f5061796d656e7453706c69747465723a206163636f756e74206973206e6f742060008301527f647565207061796d656e740000000000000000000000000000000000000000006020830152604082019050919050565b600061088c6000836109c5565b9150600082019050919050565b6108a281610b3a565b82525050565b60006108b38261087f565b9150819050919050565b60006020820190506108d260008301846106fe565b92915050565b60006040820190506108ed60008301856106ef565b6108fa6020830184610899565b9392505050565b600060408201905061091660008301856106fe565b6109236020830184610899565b9392505050565b600060208201905081810360008301526109438161070d565b9050919050565b6000602082019050818103600083015261096381610773565b9050919050565b60006020820190508181036000830152610983816107d9565b9050919050565b600060208201905081810360008301526109a381610819565b9050919050565b60006020820190506109bf6000830184610899565b92915050565b600081905092915050565b600082825260208201905092915050565b60006109ec82610b3a565b91506109f783610b3a565b9250827fffffffffffffffffffffffffffffffffffffffffffffffffffffffffffffffff03821115610a2c57610a2b610b7a565b5b828201905092915050565b6000610a4282610b3a565b9150610a4d83610b3a565b925082610a5d57610a5c610ba9565b5b828204905092915050565b6000610a7382610b3a565b9150610a7e83610b3a565b9250817fffffffffffffffffffffffffffffffffffffffffffffffffffffffffffffffff0483118215151615610ab757610ab6610b7a565b5b828202905092915050565b6000610acd82610b3a565b9150610ad883610b3a565b925082821015610aeb57610aea610b7a565b5b828203905092915050565b6000610b0182610b1a565b9050919050565b6000610b1382610b1a565b9050919050565b600073ffffffffffffffffffffffffffffffffffffffff82169050919050565b6000819050919050565b6000610b4f82610b56565b9050919050565b6000610b6182610b68565b9050919050565b6000610b7382610b1a565b9050919050565b7f4e487b7100000000000000000000000000000000000000000000000000000000600052601160045260246000fd5b7f4e487b7100000000000000000000000000000000000000000000000000000000600052601260045260246000fd5b610be181610af6565b8114610bec57600080fd5b50565b610bf881610b08565b8114610c0357600080fd5b50565b610c0f81610b3a565b8114610c1a57600080fd5b5056fea264697066735822122006ffa6c05871a6e0a87308e68dbb1cd57047f02fc4a2ee959e698329b86720fa64736f6c63430008000033",
  "linkReferences": {},
  "deployedLinkReferences": {}
}