{
  "_format": "hh-sol-artifact-1",
  "contractName": "WEquilCoinSmall",
  "sourceName": "contracts/small/WequilCoinSmall.sol",
  "abi": [
    {
      "inputs": [
        {
          "internalType": "address[]",
          "name": "payees",
          "type": "address[]"
        },
        {
          "internalType": "uint256[]",
          "name": "shares_",
          "type": "uint256[]"
        }
      ],
      "stateMutability": "nonpayable",
      "type": "constructor"
    },
    {
      "anonymous": false,
      "inputs": [
        {
          "indexed": true,
          "internalType": "address",
          "name": "owner",
          "type": "address"
        },
        {
          "indexed": true,
          "internalType": "address",
          "name": "spender",
          "type": "address"
        },
        {
          "indexed": false,
          "internalType": "uint256",
          "name": "value",
          "type": "uint256"
        }
      ],
      "name": "Approval",
      "type": "event"
    },
    {
      "anonymous": false,
      "inputs": [
        {
          "indexed": false,
          "internalType": "address",
          "name": "account",
          "type": "address"
        },
        {
          "indexed": false,
          "internalType": "uint256",
          "name": "shares",
          "type": "uint256"
        }
      ],
      "name": "PayeeAdded",
      "type": "event"
    },
    {
      "anonymous": false,
      "inputs": [
        {
          "indexed": false,
          "internalType": "address",
          "name": "from",
          "type": "address"
        },
        {
          "indexed": false,
          "internalType": "uint256",
          "name": "amount",
          "type": "uint256"
        }
      ],
      "name": "PaymentReceived",
      "type": "event"
    },
    {
      "anonymous": false,
      "inputs": [
        {
          "indexed": false,
          "internalType": "address",
          "name": "to",
          "type": "address"
        },
        {
          "indexed": false,
          "internalType": "uint256",
          "name": "amount",
          "type": "uint256"
        }
      ],
      "name": "PaymentReleased",
      "type": "event"
    },
    {
      "anonymous": false,
      "inputs": [
        {
          "indexed": true,
          "internalType": "address",
          "name": "from",
          "type": "address"
        },
        {
          "indexed": true,
          "internalType": "address",
          "name": "to",
          "type": "address"
        },
        {
          "indexed": false,
          "internalType": "uint256",
          "name": "value",
          "type": "uint256"
        }
      ],
      "name": "Transfer",
      "type": "event"
    },
    {
      "inputs": [
        {
          "internalType": "address",
          "name": "owner",
          "type": "address"
        },
        {
          "internalType": "address",
          "name": "spender",
          "type": "address"
        }
      ],
      "name": "allowance",
      "outputs": [
        {
          "internalType": "uint256",
          "name": "",
          "type": "uint256"
        }
      ],
      "stateMutability": "view",
      "type": "function"
    },
    {
      "inputs": [
        {
          "internalType": "address",
          "name": "spender",
          "type": "address"
        },
        {
          "internalType": "uint256",
          "name": "amount",
          "type": "uint256"
        }
      ],
      "name": "approve",
      "outputs": [
        {
          "internalType": "bool",
          "name": "",
          "type": "bool"
        }
      ],
      "stateMutability": "nonpayable",
      "type": "function"
    },
    {
      "inputs": [
        {
          "internalType": "address",
          "name": "account",
          "type": "address"
        }
      ],
      "name": "balanceOf",
      "outputs": [
        {
          "internalType": "uint256",
          "name": "",
          "type": "uint256"
        }
      ],
      "stateMutability": "view",
      "type": "function"
    },
    {
      "inputs": [],
      "name": "buyCoin",
      "outputs": [],
      "stateMutability": "payable",
      "type": "function"
    },
    {
      "inputs": [],
      "name": "decimals",
      "outputs": [
        {
          "internalType": "uint8",
          "name": "",
          "type": "uint8"
        }
      ],
      "stateMutability": "view",
      "type": "function"
    },
    {
      "inputs": [
        {
          "internalType": "address",
          "name": "spender",
          "type": "address"
        },
        {
          "internalType": "uint256",
          "name": "subtractedValue",
          "type": "uint256"
        }
      ],
      "name": "decreaseAllowance",
      "outputs": [
        {
          "internalType": "bool",
          "name": "",
          "type": "bool"
        }
      ],
      "stateMutability": "nonpayable",
      "type": "function"
    },
    {
      "inputs": [
        {
          "internalType": "address",
          "name": "spender",
          "type": "address"
        },
        {
          "internalType": "uint256",
          "name": "addedValue",
          "type": "uint256"
        }
      ],
      "name": "increaseAllowance",
      "outputs": [
        {
          "internalType": "bool",
          "name": "",
          "type": "bool"
        }
      ],
      "stateMutability": "nonpayable",
      "type": "function"
    },
    {
      "inputs": [],
      "name": "name",
      "outputs": [
        {
          "internalType": "string",
          "name": "",
          "type": "string"
        }
      ],
      "stateMutability": "view",
      "type": "function"
    },
    {
      "inputs": [
        {
          "internalType": "uint256",
          "name": "index",
          "type": "uint256"
        }
      ],
      "name": "payee",
      "outputs": [
        {
          "internalType": "address",
          "name": "",
          "type": "address"
        }
      ],
      "stateMutability": "view",
      "type": "function"
    },
    {
      "inputs": [
        {
          "internalType": "address payable",
          "name": "account",
          "type": "address"
        }
      ],
      "name": "release",
      "outputs": [],
      "stateMutability": "nonpayable",
      "type": "function"
    },
    {
      "inputs": [
        {
          "internalType": "address",
          "name": "account",
          "type": "address"
        }
      ],
      "name": "released",
      "outputs": [
        {
          "internalType": "uint256",
          "name": "",
          "type": "uint256"
        }
      ],
      "stateMutability": "view",
      "type": "function"
    },
    {
      "inputs": [
        {
          "internalType": "address",
          "name": "account",
          "type": "address"
        }
      ],
      "name": "shares",
      "outputs": [
        {
          "internalType": "uint256",
          "name": "",
          "type": "uint256"
        }
      ],
      "stateMutability": "view",
      "type": "function"
    },
    {
      "inputs": [],
      "name": "symbol",
      "outputs": [
        {
          "internalType": "string",
          "name": "",
          "type": "string"
        }
      ],
      "stateMutability": "view",
      "type": "function"
    },
    {
      "inputs": [],
      "name": "totalReleased",
      "outputs": [
        {
          "internalType": "uint256",
          "name": "",
          "type": "uint256"
        }
      ],
      "stateMutability": "view",
      "type": "function"
    },
    {
      "inputs": [],
      "name": "totalShares",
      "outputs": [
        {
          "internalType": "uint256",
          "name": "",
          "type": "uint256"
        }
      ],
      "stateMutability": "view",
      "type": "function"
    },
    {
      "inputs": [],
      "name": "totalSupply",
      "outputs": [
        {
          "internalType": "uint256",
          "name": "",
          "type": "uint256"
        }
      ],
      "stateMutability": "view",
      "type": "function"
    },
    {
      "inputs": [
        {
          "internalType": "address",
          "name": "recipient",
          "type": "address"
        },
        {
          "internalType": "uint256",
          "name": "amount",
          "type": "uint256"
        }
      ],
      "name": "transfer",
      "outputs": [
        {
          "internalType": "bool",
          "name": "",
          "type": "bool"
        }
      ],
      "stateMutability": "nonpayable",
      "type": "function"
    },
    {
      "inputs": [
        {
          "internalType": "address",
          "name": "sender",
          "type": "address"
        },
        {
          "internalType": "address",
          "name": "recipient",
          "type": "address"
        },
        {
          "internalType": "uint256",
          "name": "amount",
          "type": "uint256"
        }
      ],
      "name": "transferFrom",
      "outputs": [
        {
          "internalType": "bool",
          "name": "",
          "type": "bool"
        }
      ],
      "stateMutability": "nonpayable",
      "type": "function"
    },
    {
      "stateMutability": "payable",
      "type": "receive"
    }
  ],
  "bytecode": "0x60806040523480156200001157600080fd5b5060405162002f5038038062002f50833981810160405281019062000037919062000848565b81816040518060400160405280600f81526020017f57457175696c436f696e20f09f988300000000000000000000000000000000008152506040518060400160405280600481526020017f57455143000000000000000000000000000000000000000000000000000000008152508160039080519060200190620000bd92919062000626565b508060049080519060200190620000d692919062000626565b505050805182511462000120576040517f08c379a0000000000000000000000000000000000000000000000000000000008152600401620001179062000b2a565b60405180910390fd5b600082511162000167576040517f08c379a00000000000000000000000000000000000000000000000000000000081526004016200015e9062000b6e565b60405180910390fd5b60005b82518110156200021e5762000208838281518110620001b2577f4e487b7100000000000000000000000000000000000000000000000000000000600052603260045260246000fd5b6020026020010151838381518110620001f4577f4e487b7100000000000000000000000000000000000000000000000000000000600052603260045260246000fd5b60200260200101516200029260201b60201c565b8080620002159062000f6b565b9150506200016a565b505050600062000233620004cc60201b60201c565b600a62000241919062000d4c565b90506200026633826302625a006200025a919062000e89565b620004d560201b60201c565b6200028930826301312d006200027d919062000e89565b620004d560201b60201c565b50505062001087565b600073ffffffffffffffffffffffffffffffffffffffff168273ffffffffffffffffffffffffffffffffffffffff16141562000305576040517f08c379a0000000000000000000000000000000000000000000000000000000008152600401620002fc9062000b08565b60405180910390fd5b600081116200034b576040517f08c379a0000000000000000000000000000000000000000000000000000000008152600401620003429062000b90565b60405180910390fd5b6000600760008473ffffffffffffffffffffffffffffffffffffffff1673ffffffffffffffffffffffffffffffffffffffff1681526020019081526020016000205414620003d0576040517f08c379a0000000000000000000000000000000000000000000000000000000008152600401620003c79062000b4c565b60405180910390fd5b6009829080600181540180825580915050600190039060005260206000200160009091909190916101000a81548173ffffffffffffffffffffffffffffffffffffffff021916908373ffffffffffffffffffffffffffffffffffffffff16021790555080600760008473ffffffffffffffffffffffffffffffffffffffff1673ffffffffffffffffffffffffffffffffffffffff168152602001908152602001600020819055508060055462000487919062000c94565b6005819055507f40c340f65e17194d14ddddb073d3c9f888e3cb52b5aae0c6c7706b4fbc905fac8282604051620004c092919062000adb565b60405180910390a15050565b60006012905090565b600073ffffffffffffffffffffffffffffffffffffffff168273ffffffffffffffffffffffffffffffffffffffff16141562000548576040517f08c379a00000000000000000000000000000000000000000000000000000000081526004016200053f9062000bb2565b60405180910390fd5b80600260008282546200055c919062000c94565b92505081905550806000808473ffffffffffffffffffffffffffffffffffffffff1673ffffffffffffffffffffffffffffffffffffffff1681526020019081526020016000206000828254620005b3919062000c94565b925050819055508173ffffffffffffffffffffffffffffffffffffffff16600073ffffffffffffffffffffffffffffffffffffffff167fddf252ad1be2c89b69c2b068fc378daa952ba7f163c4a11628f55a4df523b3ef836040516200061a919062000bd4565b60405180910390a35050565b828054620006349062000f35565b90600052602060002090601f016020900481019282620006585760008555620006a4565b82601f106200067357805160ff1916838001178555620006a4565b82800160010185558215620006a4579182015b82811115620006a357825182559160200191906001019062000686565b5b509050620006b39190620006b7565b5090565b5b80821115620006d2576000816000905550600101620006b8565b5090565b6000620006ed620006e78462000c25565b62000bf1565b905080838252602082019050828560208602820111156200070d57600080fd5b60005b85811015620007415781620007268882620007c0565b84526020840193506020830192505060018101905062000710565b5050509392505050565b6000620007626200075c8462000c54565b62000bf1565b905080838252602082019050828560208602820111156200078257600080fd5b60005b85811015620007b657816200079b888262000831565b84526020840193506020830192505060018101905062000785565b5050509392505050565b600081519050620007d18162001053565b92915050565b600082601f830112620007e957600080fd5b8151620007fb848260208601620006d6565b91505092915050565b600082601f8301126200081657600080fd5b8151620008288482602086016200074b565b91505092915050565b60008151905062000842816200106d565b92915050565b600080604083850312156200085c57600080fd5b600083015167ffffffffffffffff8111156200087757600080fd5b6200088585828601620007d7565b925050602083015167ffffffffffffffff811115620008a357600080fd5b620008b18582860162000804565b9150509250929050565b620008c68162000eea565b82525050565b6000620008db602c8362000c83565b91507f5061796d656e7453706c69747465723a206163636f756e74206973207468652060008301527f7a65726f206164647265737300000000000000000000000000000000000000006020830152604082019050919050565b60006200094360328362000c83565b91507f5061796d656e7453706c69747465723a2070617965657320616e64207368617260008301527f6573206c656e677468206d69736d6174636800000000000000000000000000006020830152604082019050919050565b6000620009ab602b8362000c83565b91507f5061796d656e7453706c69747465723a206163636f756e7420616c726561647960008301527f20686173207368617265730000000000000000000000000000000000000000006020830152604082019050919050565b600062000a13601a8362000c83565b91507f5061796d656e7453706c69747465723a206e6f207061796565730000000000006000830152602082019050919050565b600062000a55601d8362000c83565b91507f5061796d656e7453706c69747465723a207368617265732061726520300000006000830152602082019050919050565b600062000a97601f8362000c83565b91507f45524332303a206d696e7420746f20746865207a65726f2061646472657373006000830152602082019050919050565b62000ad58162000f1e565b82525050565b600060408201905062000af26000830185620008bb565b62000b01602083018462000aca565b9392505050565b6000602082019050818103600083015262000b2381620008cc565b9050919050565b6000602082019050818103600083015262000b458162000934565b9050919050565b6000602082019050818103600083015262000b67816200099c565b9050919050565b6000602082019050818103600083015262000b898162000a04565b9050919050565b6000602082019050818103600083015262000bab8162000a46565b9050919050565b6000602082019050818103600083015262000bcd8162000a88565b9050919050565b600060208201905062000beb600083018462000aca565b92915050565b6000604051905081810181811067ffffffffffffffff8211171562000c1b5762000c1a62001017565b5b8060405250919050565b600067ffffffffffffffff82111562000c435762000c4262001017565b5b602082029050602081019050919050565b600067ffffffffffffffff82111562000c725762000c7162001017565b5b602082029050602081019050919050565b600082825260208201905092915050565b600062000ca18262000f1e565b915062000cae8362000f1e565b9250827fffffffffffffffffffffffffffffffffffffffffffffffffffffffffffffffff0382111562000ce65762000ce562000fb9565b5b828201905092915050565b6000808291508390505b600185111562000d435780860481111562000d1b5762000d1a62000fb9565b5b600185161562000d2b5780820291505b808102905062000d3b8562001046565b945062000cfb565b94509492505050565b600062000d598262000f1e565b915062000d668362000f28565b925062000d957fffffffffffffffffffffffffffffffffffffffffffffffffffffffffffffffff848462000d9d565b905092915050565b60008262000daf576001905062000e82565b8162000dbf576000905062000e82565b816001811462000dd8576002811462000de35762000e19565b600191505062000e82565b60ff84111562000df85762000df762000fb9565b5b8360020a91508482111562000e125762000e1162000fb9565b5b5062000e82565b5060208310610133831016604e8410600b841016171562000e535782820a90508381111562000e4d5762000e4c62000fb9565b5b62000e82565b62000e62848484600162000cf1565b9250905081840481111562000e7c5762000e7b62000fb9565b5b81810290505b9392505050565b600062000e968262000f1e565b915062000ea38362000f1e565b9250817fffffffffffffffffffffffffffffffffffffffffffffffffffffffffffffffff048311821515161562000edf5762000ede62000fb9565b5b828202905092915050565b600062000ef78262000efe565b9050919050565b600073ffffffffffffffffffffffffffffffffffffffff82169050919050565b6000819050919050565b600060ff82169050919050565b6000600282049050600182168062000f4e57607f821691505b6020821081141562000f655762000f6462000fe8565b5b50919050565b600062000f788262000f1e565b91507fffffffffffffffffffffffffffffffffffffffffffffffffffffffffffffffff82141562000fae5762000fad62000fb9565b5b600182019050919050565b7f4e487b7100000000000000000000000000000000000000000000000000000000600052601160045260246000fd5b7f4e487b7100000000000000000000000000000000000000000000000000000000600052602260045260246000fd5b7f4e487b7100000000000000000000000000000000000000000000000000000000600052604160045260246000fd5b60008160011c9050919050565b6200105e8162000eea565b81146200106a57600080fd5b50565b620010788162000f1e565b81146200108457600080fd5b50565b611eb980620010976000396000f3fe60806040526004361061010d5760003560e01c806370a0823111610095578063a457c2d711610064578063a457c2d7146103ca578063a9059cbb14610407578063ce7c2ac214610444578063dd62ed3e14610481578063e33b7de3146104be5761014d565b806370a08231146102e85780638b83209b1461032557806395d89b41146103625780639852595c1461038d5761014d565b806319165587116100dc57806319165587146101ef57806323b872dd14610218578063313ce5671461025557806339509351146102805780633a98ef39146102bd5761014d565b806306fdde0314610152578063091e9a601461017d578063095ea7b31461018757806318160ddd146101c45761014d565b3661014d577f6ef95f06320e7a25a04a175ca677b7052bdd97131872c2192525a629f51be7703334604051610143929190611966565b60405180910390a1005b600080fd5b34801561015e57600080fd5b506101676104e9565b60405161017491906119aa565b60405180910390f35b61018561057b565b005b34801561019357600080fd5b506101ae60048036038101906101a991906113ce565b610613565b6040516101bb919061198f565b60405180910390f35b3480156101d057600080fd5b506101d961062a565b6040516101e69190611b2c565b60405180910390f35b3480156101fb57600080fd5b506102166004803603810190610211919061131a565b610634565b005b34801561022457600080fd5b5061023f600480360381019061023a919061137f565b610982565b60405161024c919061198f565b60405180910390f35b34801561026157600080fd5b5061026a610a6c565b6040516102779190611b47565b60405180910390f35b34801561028c57600080fd5b506102a760048036038101906102a291906113ce565b610a75565b6040516102b4919061198f565b60405180910390f35b3480156102c957600080fd5b506102d2610b13565b6040516102df9190611b2c565b60405180910390f35b3480156102f457600080fd5b5061030f600480360381019061030a91906112f1565b610b1d565b60405161031c9190611b2c565b60405180910390f35b34801561033157600080fd5b5061034c6004803603810190610347919061140a565b610b65565b6040516103599190611922565b60405180910390f35b34801561036e57600080fd5b50610377610bd3565b60405161038491906119aa565b60405180910390f35b34801561039957600080fd5b506103b460048036038101906103af91906112f1565b610c65565b6040516103c19190611b2c565b60405180910390f35b3480156103d657600080fd5b506103f160048036038101906103ec91906113ce565b610cae565b6040516103fe919061198f565b60405180910390f35b34801561041357600080fd5b5061042e600480360381019061042991906113ce565b610d8b565b60405161043b919061198f565b60405180910390f35b34801561045057600080fd5b5061046b600480360381019061046691906112f1565b610da2565b6040516104789190611b2c565b60405180910390f35b34801561048d57600080fd5b506104a860048036038101906104a39190611343565b610deb565b6040516104b59190611b2c565b60405180910390f35b3480156104ca57600080fd5b506104d3610e72565b6040516104e09190611b2c565b60405180910390f35b6060600380546104f890611d6e565b80601f016020809104026020016040519081016040528092919081815260200182805461052490611d6e565b80156105715780601f1061054657610100808354040283529160200191610571565b820191906000526020600020905b81548152906001019060200180831161055457829003601f168201915b5050505050905090565b60006103e83461058b9190611c10565b90508061059730610b1d565b10156105cc577f4e487b7100000000000000000000000000000000000000000000000000000000600052600160045260246000fd5b7f6ef95f06320e7a25a04a175ca677b7052bdd97131872c2192525a629f51be77033346040516105fd929190611966565b60405180910390a1610610303383610e7c565b50565b60006106203384846110e7565b6001905092915050565b6000600254905090565b6000600760008373ffffffffffffffffffffffffffffffffffffffff1673ffffffffffffffffffffffffffffffffffffffff16815260200190815260200160002054116106b6576040517f08c379a00000000000000000000000000000000000000000000000000000000081526004016106ad90611a2c565b60405180910390fd5b6000600654476106c69190611b89565b90506000600860008473ffffffffffffffffffffffffffffffffffffffff1673ffffffffffffffffffffffffffffffffffffffff16815260200190815260200160002054600554600760008673ffffffffffffffffffffffffffffffffffffffff1673ffffffffffffffffffffffffffffffffffffffff16815260200190815260200160002054846107589190611c10565b6107629190611bdf565b61076c9190611c6a565b905060008114156107b2576040517f08c379a00000000000000000000000000000000000000000000000000000000081526004016107a990611a8c565b60405180910390fd5b80600860008573ffffffffffffffffffffffffffffffffffffffff1673ffffffffffffffffffffffffffffffffffffffff168152602001908152602001600020546107fd9190611b89565b600860008573ffffffffffffffffffffffffffffffffffffffff1673ffffffffffffffffffffffffffffffffffffffff168152602001908152602001600020819055508060065461084e9190611b89565b60068190555080471015610897576040517f08c379a000000000000000000000000000000000000000000000000000000000815260040161088e90611a6c565b60405180910390fd5b60008373ffffffffffffffffffffffffffffffffffffffff16826040516108bd9061190d565b60006040518083038185875af1925050503d80600081146108fa576040519150601f19603f3d011682016040523d82523d6000602084013e6108ff565b606091505b5050905080610943576040517f08c379a000000000000000000000000000000000000000000000000000000000815260040161093a90611a4c565b60405180910390fd5b7fdf20fd1e76bc69d672e4814fafb2c449bba3a5369d8359adf9e05e6fde87b056848360405161097492919061193d565b60405180910390a150505050565b600061098f848484610e7c565b6000600160008673ffffffffffffffffffffffffffffffffffffffff1673ffffffffffffffffffffffffffffffffffffffff16815260200190815260200160002060003373ffffffffffffffffffffffffffffffffffffffff1673ffffffffffffffffffffffffffffffffffffffff16815260200190815260200160002054905082811015610a53576040517f08c379a0000000000000000000000000000000000000000000000000000000008152600401610a4a90611aac565b60405180910390fd5b610a6085338584036110e7565b60019150509392505050565b60006012905090565b6000610b09338484600160003373ffffffffffffffffffffffffffffffffffffffff1673ffffffffffffffffffffffffffffffffffffffff16815260200190815260200160002060008873ffffffffffffffffffffffffffffffffffffffff1673ffffffffffffffffffffffffffffffffffffffff16815260200190815260200160002054610b049190611b89565b6110e7565b6001905092915050565b6000600554905090565b60008060008373ffffffffffffffffffffffffffffffffffffffff1673ffffffffffffffffffffffffffffffffffffffff168152602001908152602001600020549050919050565b600060098281548110610ba1577f4e487b7100000000000000000000000000000000000000000000000000000000600052603260045260246000fd5b9060005260206000200160009054906101000a900473ffffffffffffffffffffffffffffffffffffffff169050919050565b606060048054610be290611d6e565b80601f0160208091040260200160405190810160405280929190818152602001828054610c0e90611d6e565b8015610c5b5780601f10610c3057610100808354040283529160200191610c5b565b820191906000526020600020905b815481529060010190602001808311610c3e57829003601f168201915b5050505050905090565b6000600860008373ffffffffffffffffffffffffffffffffffffffff1673ffffffffffffffffffffffffffffffffffffffff168152602001908152602001600020549050919050565b600080600160003373ffffffffffffffffffffffffffffffffffffffff1673ffffffffffffffffffffffffffffffffffffffff16815260200190815260200160002060008573ffffffffffffffffffffffffffffffffffffffff1673ffffffffffffffffffffffffffffffffffffffff16815260200190815260200160002054905082811015610d73576040517f08c379a0000000000000000000000000000000000000000000000000000000008152600401610d6a90611b0c565b60405180910390fd5b610d8033858584036110e7565b600191505092915050565b6000610d98338484610e7c565b6001905092915050565b6000600760008373ffffffffffffffffffffffffffffffffffffffff1673ffffffffffffffffffffffffffffffffffffffff168152602001908152602001600020549050919050565b6000600160008473ffffffffffffffffffffffffffffffffffffffff1673ffffffffffffffffffffffffffffffffffffffff16815260200190815260200160002060008373ffffffffffffffffffffffffffffffffffffffff1673ffffffffffffffffffffffffffffffffffffffff16815260200190815260200160002054905092915050565b6000600654905090565b600073ffffffffffffffffffffffffffffffffffffffff168373ffffffffffffffffffffffffffffffffffffffff161415610eec576040517f08c379a0000000000000000000000000000000000000000000000000000000008152600401610ee390611acc565b60405180910390fd5b600073ffffffffffffffffffffffffffffffffffffffff168273ffffffffffffffffffffffffffffffffffffffff161415610f5c576040517f08c379a0000000000000000000000000000000000000000000000000000000008152600401610f53906119cc565b60405180910390fd5b60008060008573ffffffffffffffffffffffffffffffffffffffff1673ffffffffffffffffffffffffffffffffffffffff16815260200190815260200160002054905081811015610fe2576040517f08c379a0000000000000000000000000000000000000000000000000000000008152600401610fd990611a0c565b60405180910390fd5b8181036000808673ffffffffffffffffffffffffffffffffffffffff1673ffffffffffffffffffffffffffffffffffffffff16815260200190815260200160002081905550816000808573ffffffffffffffffffffffffffffffffffffffff1673ffffffffffffffffffffffffffffffffffffffff16815260200190815260200160002060008282546110759190611b89565b925050819055508273ffffffffffffffffffffffffffffffffffffffff168473ffffffffffffffffffffffffffffffffffffffff167fddf252ad1be2c89b69c2b068fc378daa952ba7f163c4a11628f55a4df523b3ef846040516110d99190611b2c565b60405180910390a350505050565b600073ffffffffffffffffffffffffffffffffffffffff168373ffffffffffffffffffffffffffffffffffffffff161415611157576040517f08c379a000000000000000000000000000000000000000000000000000000000815260040161114e90611aec565b60405180910390fd5b600073ffffffffffffffffffffffffffffffffffffffff168273ffffffffffffffffffffffffffffffffffffffff1614156111c7576040517f08c379a00000000000000000000000000000000000000000000000000000000081526004016111be906119ec565b60405180910390fd5b80600160008573ffffffffffffffffffffffffffffffffffffffff1673ffffffffffffffffffffffffffffffffffffffff16815260200190815260200160002060008473ffffffffffffffffffffffffffffffffffffffff1673ffffffffffffffffffffffffffffffffffffffff168152602001908152602001600020819055508173ffffffffffffffffffffffffffffffffffffffff168373ffffffffffffffffffffffffffffffffffffffff167f8c5be1e5ebec7d5bd14f71427d1e84f3dd0314c0f7b2291e5b200ac8c7c3b925836040516112a59190611b2c565b60405180910390a3505050565b6000813590506112c181611e3e565b92915050565b6000813590506112d681611e55565b92915050565b6000813590506112eb81611e6c565b92915050565b60006020828403121561130357600080fd5b6000611311848285016112b2565b91505092915050565b60006020828403121561132c57600080fd5b600061133a848285016112c7565b91505092915050565b6000806040838503121561135657600080fd5b6000611364858286016112b2565b9250506020611375858286016112b2565b9150509250929050565b60008060006060848603121561139457600080fd5b60006113a2868287016112b2565b93505060206113b3868287016112b2565b92505060406113c4868287016112dc565b9150509250925092565b600080604083850312156113e157600080fd5b60006113ef858286016112b2565b9250506020611400858286016112dc565b9150509250929050565b60006020828403121561141c57600080fd5b600061142a848285016112dc565b91505092915050565b61143c81611d05565b82525050565b61144b81611c9e565b82525050565b61145a81611cc2565b82525050565b600061146b82611b62565b6114758185611b78565b9350611485818560208601611d3b565b61148e81611e2d565b840191505092915050565b60006114a6602383611b78565b91507f45524332303a207472616e7366657220746f20746865207a65726f206164647260008301527f65737300000000000000000000000000000000000000000000000000000000006020830152604082019050919050565b600061150c602283611b78565b91507f45524332303a20617070726f766520746f20746865207a65726f20616464726560008301527f73730000000000000000000000000000000000000000000000000000000000006020830152604082019050919050565b6000611572602683611b78565b91507f45524332303a207472616e7366657220616d6f756e742065786365656473206260008301527f616c616e636500000000000000000000000000000000000000000000000000006020830152604082019050919050565b60006115d8602683611b78565b91507f5061796d656e7453706c69747465723a206163636f756e7420686173206e6f2060008301527f73686172657300000000000000000000000000000000000000000000000000006020830152604082019050919050565b600061163e603a83611b78565b91507f416464726573733a20756e61626c6520746f2073656e642076616c75652c207260008301527f6563697069656e74206d617920686176652072657665727465640000000000006020830152604082019050919050565b60006116a4601d83611b78565b91507f416464726573733a20696e73756666696369656e742062616c616e63650000006000830152602082019050919050565b60006116e4602b83611b78565b91507f5061796d656e7453706c69747465723a206163636f756e74206973206e6f742060008301527f647565207061796d656e740000000000000000000000000000000000000000006020830152604082019050919050565b600061174a602883611b78565b91507f45524332303a207472616e7366657220616d6f756e742065786365656473206160008301527f6c6c6f77616e63650000000000000000000000000000000000000000000000006020830152604082019050919050565b60006117b0602583611b78565b91507f45524332303a207472616e736665722066726f6d20746865207a65726f20616460008301527f64726573730000000000000000000000000000000000000000000000000000006020830152604082019050919050565b6000611816600083611b6d565b9150600082019050919050565b6000611830602483611b78565b91507f45524332303a20617070726f76652066726f6d20746865207a65726f2061646460008301527f72657373000000000000000000000000000000000000000000000000000000006020830152604082019050919050565b6000611896602583611b78565b91507f45524332303a2064656372656173656420616c6c6f77616e63652062656c6f7760008301527f207a65726f0000000000000000000000000000000000000000000000000000006020830152604082019050919050565b6118f881611cee565b82525050565b61190781611cf8565b82525050565b600061191882611809565b9150819050919050565b60006020820190506119376000830184611442565b92915050565b60006040820190506119526000830185611433565b61195f60208301846118ef565b9392505050565b600060408201905061197b6000830185611442565b61198860208301846118ef565b9392505050565b60006020820190506119a46000830184611451565b92915050565b600060208201905081810360008301526119c48184611460565b905092915050565b600060208201905081810360008301526119e581611499565b9050919050565b60006020820190508181036000830152611a05816114ff565b9050919050565b60006020820190508181036000830152611a2581611565565b9050919050565b60006020820190508181036000830152611a45816115cb565b9050919050565b60006020820190508181036000830152611a6581611631565b9050919050565b60006020820190508181036000830152611a8581611697565b9050919050565b60006020820190508181036000830152611aa5816116d7565b9050919050565b60006020820190508181036000830152611ac58161173d565b9050919050565b60006020820190508181036000830152611ae5816117a3565b9050919050565b60006020820190508181036000830152611b0581611823565b9050919050565b60006020820190508181036000830152611b2581611889565b9050919050565b6000602082019050611b4160008301846118ef565b92915050565b6000602082019050611b5c60008301846118fe565b92915050565b600081519050919050565b600081905092915050565b600082825260208201905092915050565b6000611b9482611cee565b9150611b9f83611cee565b9250827fffffffffffffffffffffffffffffffffffffffffffffffffffffffffffffffff03821115611bd457611bd3611da0565b5b828201905092915050565b6000611bea82611cee565b9150611bf583611cee565b925082611c0557611c04611dcf565b5b828204905092915050565b6000611c1b82611cee565b9150611c2683611cee565b9250817fffffffffffffffffffffffffffffffffffffffffffffffffffffffffffffffff0483118215151615611c5f57611c5e611da0565b5b828202905092915050565b6000611c7582611cee565b9150611c8083611cee565b925082821015611c9357611c92611da0565b5b828203905092915050565b6000611ca982611cce565b9050919050565b6000611cbb82611cce565b9050919050565b60008115159050919050565b600073ffffffffffffffffffffffffffffffffffffffff82169050919050565b6000819050919050565b600060ff82169050919050565b6000611d1082611d17565b9050919050565b6000611d2282611d29565b9050919050565b6000611d3482611cce565b9050919050565b60005b83811015611d59578082015181840152602081019050611d3e565b83811115611d68576000848401525b50505050565b60006002820490506001821680611d8657607f821691505b60208210811415611d9a57611d99611dfe565b5b50919050565b7f4e487b7100000000000000000000000000000000000000000000000000000000600052601160045260246000fd5b7f4e487b7100000000000000000000000000000000000000000000000000000000600052601260045260246000fd5b7f4e487b7100000000000000000000000000000000000000000000000000000000600052602260045260246000fd5b6000601f19601f8301169050919050565b611e4781611c9e565b8114611e5257600080fd5b50565b611e5e81611cb0565b8114611e6957600080fd5b50565b611e7581611cee565b8114611e8057600080fd5b5056fea2646970667358221220328e8a5db8e6b78cab622637f22f43ecd0c0e466fe73a0a5abd1997f48a5fffb64736f6c63430008000033",
  "linkReferences": {},
  "deployedLinkReferences": {}
}