{
  "_format": "hh-sol-artifact-1",
  "contractName": "WEquilCoin",
  "sourceName": "contracts/WEquilCoin.sol",
  "abi": [
    {
      "inputs": [
        {
          "internalType": "address[]",
          "name": "payees",
          "type": "address[]"
        },
        {
          "internalType": "uint256[]",
          "name": "shares_",
          "type": "uint256[]"
        }
      ],
      "stateMutability": "nonpayable",
      "type": "constructor"
    },
    {
      "anonymous": false,
      "inputs": [
        {
          "indexed": true,
          "internalType": "address",
          "name": "owner",
          "type": "address"
        },
        {
          "indexed": true,
          "internalType": "address",
          "name": "spender",
          "type": "address"
        },
        {
          "indexed": false,
          "internalType": "uint256",
          "name": "value",
          "type": "uint256"
        }
      ],
      "name": "Approval",
      "type": "event"
    },
    {
      "anonymous": false,
      "inputs": [
        {
          "indexed": false,
          "internalType": "address",
          "name": "account",
          "type": "address"
        },
        {
          "indexed": false,
          "internalType": "uint256",
          "name": "shares",
          "type": "uint256"
        }
      ],
      "name": "PayeeAdded",
      "type": "event"
    },
    {
      "anonymous": false,
      "inputs": [
        {
          "indexed": false,
          "internalType": "address",
          "name": "from",
          "type": "address"
        },
        {
          "indexed": false,
          "internalType": "uint256",
          "name": "amount",
          "type": "uint256"
        }
      ],
      "name": "PaymentReceived",
      "type": "event"
    },
    {
      "anonymous": false,
      "inputs": [
        {
          "indexed": false,
          "internalType": "address",
          "name": "to",
          "type": "address"
        },
        {
          "indexed": false,
          "internalType": "uint256",
          "name": "amount",
          "type": "uint256"
        }
      ],
      "name": "PaymentReleased",
      "type": "event"
    },
    {
      "anonymous": false,
      "inputs": [
        {
          "indexed": true,
          "internalType": "address",
          "name": "from",
          "type": "address"
        },
        {
          "indexed": true,
          "internalType": "address",
          "name": "to",
          "type": "address"
        },
        {
          "indexed": false,
          "internalType": "uint256",
          "name": "value",
          "type": "uint256"
        }
      ],
      "name": "Transfer",
      "type": "event"
    },
    {
      "inputs": [
        {
          "internalType": "address",
          "name": "owner",
          "type": "address"
        },
        {
          "internalType": "address",
          "name": "spender",
          "type": "address"
        }
      ],
      "name": "allowance",
      "outputs": [
        {
          "internalType": "uint256",
          "name": "",
          "type": "uint256"
        }
      ],
      "stateMutability": "view",
      "type": "function"
    },
    {
      "inputs": [
        {
          "internalType": "address",
          "name": "spender",
          "type": "address"
        },
        {
          "internalType": "uint256",
          "name": "amount",
          "type": "uint256"
        }
      ],
      "name": "approve",
      "outputs": [
        {
          "internalType": "bool",
          "name": "",
          "type": "bool"
        }
      ],
      "stateMutability": "nonpayable",
      "type": "function"
    },
    {
      "inputs": [
        {
          "internalType": "address",
          "name": "account",
          "type": "address"
        }
      ],
      "name": "balanceOf",
      "outputs": [
        {
          "internalType": "uint256",
          "name": "",
          "type": "uint256"
        }
      ],
      "stateMutability": "view",
      "type": "function"
    },
    {
      "inputs": [],
      "name": "buyCoin",
      "outputs": [],
      "stateMutability": "payable",
      "type": "function"
    },
    {
      "inputs": [],
      "name": "decimals",
      "outputs": [
        {
          "internalType": "uint8",
          "name": "",
          "type": "uint8"
        }
      ],
      "stateMutability": "view",
      "type": "function"
    },
    {
      "inputs": [
        {
          "internalType": "address",
          "name": "spender",
          "type": "address"
        },
        {
          "internalType": "uint256",
          "name": "subtractedValue",
          "type": "uint256"
        }
      ],
      "name": "decreaseAllowance",
      "outputs": [
        {
          "internalType": "bool",
          "name": "",
          "type": "bool"
        }
      ],
      "stateMutability": "nonpayable",
      "type": "function"
    },
    {
      "inputs": [
        {
          "internalType": "address",
          "name": "spender",
          "type": "address"
        },
        {
          "internalType": "uint256",
          "name": "addedValue",
          "type": "uint256"
        }
      ],
      "name": "increaseAllowance",
      "outputs": [
        {
          "internalType": "bool",
          "name": "",
          "type": "bool"
        }
      ],
      "stateMutability": "nonpayable",
      "type": "function"
    },
    {
      "inputs": [],
      "name": "name",
      "outputs": [
        {
          "internalType": "string",
          "name": "",
          "type": "string"
        }
      ],
      "stateMutability": "view",
      "type": "function"
    },
    {
      "inputs": [
        {
          "internalType": "uint256",
          "name": "index",
          "type": "uint256"
        }
      ],
      "name": "payee",
      "outputs": [
        {
          "internalType": "address",
          "name": "",
          "type": "address"
        }
      ],
      "stateMutability": "view",
      "type": "function"
    },
    {
      "inputs": [
        {
          "internalType": "address payable",
          "name": "account",
          "type": "address"
        }
      ],
      "name": "release",
      "outputs": [],
      "stateMutability": "nonpayable",
      "type": "function"
    },
    {
      "inputs": [
        {
          "internalType": "address",
          "name": "account",
          "type": "address"
        }
      ],
      "name": "released",
      "outputs": [
        {
          "internalType": "uint256",
          "name": "",
          "type": "uint256"
        }
      ],
      "stateMutability": "view",
      "type": "function"
    },
    {
      "inputs": [
        {
          "internalType": "address",
          "name": "account",
          "type": "address"
        }
      ],
      "name": "shares",
      "outputs": [
        {
          "internalType": "uint256",
          "name": "",
          "type": "uint256"
        }
      ],
      "stateMutability": "view",
      "type": "function"
    },
    {
      "inputs": [],
      "name": "symbol",
      "outputs": [
        {
          "internalType": "string",
          "name": "",
          "type": "string"
        }
      ],
      "stateMutability": "view",
      "type": "function"
    },
    {
      "inputs": [],
      "name": "totalReleased",
      "outputs": [
        {
          "internalType": "uint256",
          "name": "",
          "type": "uint256"
        }
      ],
      "stateMutability": "view",
      "type": "function"
    },
    {
      "inputs": [],
      "name": "totalShares",
      "outputs": [
        {
          "internalType": "uint256",
          "name": "",
          "type": "uint256"
        }
      ],
      "stateMutability": "view",
      "type": "function"
    },
    {
      "inputs": [],
      "name": "totalSupply",
      "outputs": [
        {
          "internalType": "uint256",
          "name": "",
          "type": "uint256"
        }
      ],
      "stateMutability": "view",
      "type": "function"
    },
    {
      "inputs": [
        {
          "internalType": "address",
          "name": "recipient",
          "type": "address"
        },
        {
          "internalType": "uint256",
          "name": "amount",
          "type": "uint256"
        }
      ],
      "name": "transfer",
      "outputs": [
        {
          "internalType": "bool",
          "name": "",
          "type": "bool"
        }
      ],
      "stateMutability": "nonpayable",
      "type": "function"
    },
    {
      "inputs": [
        {
          "internalType": "address",
          "name": "sender",
          "type": "address"
        },
        {
          "internalType": "address",
          "name": "recipient",
          "type": "address"
        },
        {
          "internalType": "uint256",
          "name": "amount",
          "type": "uint256"
        }
      ],
      "name": "transferFrom",
      "outputs": [
        {
          "internalType": "bool",
          "name": "",
          "type": "bool"
        }
      ],
      "stateMutability": "nonpayable",
      "type": "function"
    },
    {
      "stateMutability": "payable",
      "type": "receive"
    }
  ],
  "bytecode": "0x60806040523480156200001157600080fd5b50604051620030053803806200300583398181016040528101906200003791906200087a565b81816040518060400160405280600f81526020017f57457175696c436f696e20f09f988300000000000000000000000000000000008152506040518060400160405280600481526020017f57455143000000000000000000000000000000000000000000000000000000008152508160039080519060200190620000bd92919062000658565b508060049080519060200190620000d692919062000658565b505050805182511462000120576040517f08c379a0000000000000000000000000000000000000000000000000000000008152600401620001179062000b5c565b60405180910390fd5b600082511162000167576040517f08c379a00000000000000000000000000000000000000000000000000000000081526004016200015e9062000ba0565b60405180910390fd5b60005b82518110156200021e5762000208838281518110620001b2577f4e487b7100000000000000000000000000000000000000000000000000000000600052603260045260246000fd5b6020026020010151838381518110620001f4577f4e487b7100000000000000000000000000000000000000000000000000000000600052603260045260246000fd5b60200260200101516200029260201b60201c565b8080620002159062000f9d565b9150506200016a565b505050600062000233620004cc60201b60201c565b600a62000241919062000d7e565b90506200026633826302625a006200025a919062000ebb565b620004d560201b60201c565b6200028930826301312d006200027d919062000ebb565b620004d560201b60201c565b505050620010b9565b600073ffffffffffffffffffffffffffffffffffffffff168273ffffffffffffffffffffffffffffffffffffffff16141562000305576040517f08c379a0000000000000000000000000000000000000000000000000000000008152600401620002fc9062000b3a565b60405180910390fd5b600081116200034b576040517f08c379a0000000000000000000000000000000000000000000000000000000008152600401620003429062000bc2565b60405180910390fd5b6000600760008473ffffffffffffffffffffffffffffffffffffffff1673ffffffffffffffffffffffffffffffffffffffff1681526020019081526020016000205414620003d0576040517f08c379a0000000000000000000000000000000000000000000000000000000008152600401620003c79062000b7e565b60405180910390fd5b6009829080600181540180825580915050600190039060005260206000200160009091909190916101000a81548173ffffffffffffffffffffffffffffffffffffffff021916908373ffffffffffffffffffffffffffffffffffffffff16021790555080600760008473ffffffffffffffffffffffffffffffffffffffff1673ffffffffffffffffffffffffffffffffffffffff168152602001908152602001600020819055508060055462000487919062000cc6565b6005819055507f40c340f65e17194d14ddddb073d3c9f888e3cb52b5aae0c6c7706b4fbc905fac8282604051620004c092919062000b0d565b60405180910390a15050565b60006012905090565b600073ffffffffffffffffffffffffffffffffffffffff168273ffffffffffffffffffffffffffffffffffffffff16141562000548576040517f08c379a00000000000000000000000000000000000000000000000000000000081526004016200053f9062000be4565b60405180910390fd5b6200055c600083836200064e60201b60201c565b806002600082825462000570919062000cc6565b92505081905550806000808473ffffffffffffffffffffffffffffffffffffffff1673ffffffffffffffffffffffffffffffffffffffff1681526020019081526020016000206000828254620005c7919062000cc6565b925050819055508173ffffffffffffffffffffffffffffffffffffffff16600073ffffffffffffffffffffffffffffffffffffffff167fddf252ad1be2c89b69c2b068fc378daa952ba7f163c4a11628f55a4df523b3ef836040516200062e919062000c06565b60405180910390a36200064a600083836200065360201b60201c565b5050565b505050565b505050565b828054620006669062000f67565b90600052602060002090601f0160209004810192826200068a5760008555620006d6565b82601f10620006a557805160ff1916838001178555620006d6565b82800160010185558215620006d6579182015b82811115620006d5578251825591602001919060010190620006b8565b5b509050620006e59190620006e9565b5090565b5b8082111562000704576000816000905550600101620006ea565b5090565b60006200071f620007198462000c57565b62000c23565b905080838252602082019050828560208602820111156200073f57600080fd5b60005b85811015620007735781620007588882620007f2565b84526020840193506020830192505060018101905062000742565b5050509392505050565b6000620007946200078e8462000c86565b62000c23565b90508083825260208201905082856020860282011115620007b457600080fd5b60005b85811015620007e85781620007cd888262000863565b845260208401935060208301925050600181019050620007b7565b5050509392505050565b600081519050620008038162001085565b92915050565b600082601f8301126200081b57600080fd5b81516200082d84826020860162000708565b91505092915050565b600082601f8301126200084857600080fd5b81516200085a8482602086016200077d565b91505092915050565b60008151905062000874816200109f565b92915050565b600080604083850312156200088e57600080fd5b600083015167ffffffffffffffff811115620008a957600080fd5b620008b78582860162000809565b925050602083015167ffffffffffffffff811115620008d557600080fd5b620008e38582860162000836565b9150509250929050565b620008f88162000f1c565b82525050565b60006200090d602c8362000cb5565b91507f5061796d656e7453706c69747465723a206163636f756e74206973207468652060008301527f7a65726f206164647265737300000000000000000000000000000000000000006020830152604082019050919050565b60006200097560328362000cb5565b91507f5061796d656e7453706c69747465723a2070617965657320616e64207368617260008301527f6573206c656e677468206d69736d6174636800000000000000000000000000006020830152604082019050919050565b6000620009dd602b8362000cb5565b91507f5061796d656e7453706c69747465723a206163636f756e7420616c726561647960008301527f20686173207368617265730000000000000000000000000000000000000000006020830152604082019050919050565b600062000a45601a8362000cb5565b91507f5061796d656e7453706c69747465723a206e6f207061796565730000000000006000830152602082019050919050565b600062000a87601d8362000cb5565b91507f5061796d656e7453706c69747465723a207368617265732061726520300000006000830152602082019050919050565b600062000ac9601f8362000cb5565b91507f45524332303a206d696e7420746f20746865207a65726f2061646472657373006000830152602082019050919050565b62000b078162000f50565b82525050565b600060408201905062000b246000830185620008ed565b62000b33602083018462000afc565b9392505050565b6000602082019050818103600083015262000b5581620008fe565b9050919050565b6000602082019050818103600083015262000b778162000966565b9050919050565b6000602082019050818103600083015262000b9981620009ce565b9050919050565b6000602082019050818103600083015262000bbb8162000a36565b9050919050565b6000602082019050818103600083015262000bdd8162000a78565b9050919050565b6000602082019050818103600083015262000bff8162000aba565b9050919050565b600060208201905062000c1d600083018462000afc565b92915050565b6000604051905081810181811067ffffffffffffffff8211171562000c4d5762000c4c62001049565b5b8060405250919050565b600067ffffffffffffffff82111562000c755762000c7462001049565b5b602082029050602081019050919050565b600067ffffffffffffffff82111562000ca45762000ca362001049565b5b602082029050602081019050919050565b600082825260208201905092915050565b600062000cd38262000f50565b915062000ce08362000f50565b9250827fffffffffffffffffffffffffffffffffffffffffffffffffffffffffffffffff0382111562000d185762000d1762000feb565b5b828201905092915050565b6000808291508390505b600185111562000d755780860481111562000d4d5762000d4c62000feb565b5b600185161562000d5d5780820291505b808102905062000d6d8562001078565b945062000d2d565b94509492505050565b600062000d8b8262000f50565b915062000d988362000f5a565b925062000dc77fffffffffffffffffffffffffffffffffffffffffffffffffffffffffffffffff848462000dcf565b905092915050565b60008262000de1576001905062000eb4565b8162000df1576000905062000eb4565b816001811462000e0a576002811462000e155762000e4b565b600191505062000eb4565b60ff84111562000e2a5762000e2962000feb565b5b8360020a91508482111562000e445762000e4362000feb565b5b5062000eb4565b5060208310610133831016604e8410600b841016171562000e855782820a90508381111562000e7f5762000e7e62000feb565b5b62000eb4565b62000e94848484600162000d23565b9250905081840481111562000eae5762000ead62000feb565b5b81810290505b9392505050565b600062000ec88262000f50565b915062000ed58362000f50565b9250817fffffffffffffffffffffffffffffffffffffffffffffffffffffffffffffffff048311821515161562000f115762000f1062000feb565b5b828202905092915050565b600062000f298262000f30565b9050919050565b600073ffffffffffffffffffffffffffffffffffffffff82169050919050565b6000819050919050565b600060ff82169050919050565b6000600282049050600182168062000f8057607f821691505b6020821081141562000f975762000f966200101a565b5b50919050565b600062000faa8262000f50565b91507fffffffffffffffffffffffffffffffffffffffffffffffffffffffffffffffff82141562000fe05762000fdf62000feb565b5b600182019050919050565b7f4e487b7100000000000000000000000000000000000000000000000000000000600052601160045260246000fd5b7f4e487b7100000000000000000000000000000000000000000000000000000000600052602260045260246000fd5b7f4e487b7100000000000000000000000000000000000000000000000000000000600052604160045260246000fd5b60008160011c9050919050565b620010908162000f1c565b81146200109c57600080fd5b50565b620010aa8162000f50565b8114620010b657600080fd5b50565b611f3c80620010c96000396000f3fe60806040526004361061010d5760003560e01c806370a0823111610095578063a457c2d711610064578063a457c2d7146103d1578063a9059cbb1461040e578063ce7c2ac21461044b578063dd62ed3e14610488578063e33b7de3146104c557610154565b806370a08231146102ef5780638b83209b1461032c57806395d89b41146103695780639852595c1461039457610154565b806319165587116100dc57806319165587146101f657806323b872dd1461021f578063313ce5671461025c57806339509351146102875780633a98ef39146102c457610154565b806306fdde0314610159578063091e9a6014610184578063095ea7b31461018e57806318160ddd146101cb57610154565b36610154577f6ef95f06320e7a25a04a175ca677b7052bdd97131872c2192525a629f51be77061013b6104f0565b3460405161014a9291906119e9565b60405180910390a1005b600080fd5b34801561016557600080fd5b5061016e6104f8565b60405161017b9190611a2d565b60405180910390f35b61018c61058a565b005b34801561019a57600080fd5b506101b560048036038101906101b09190611451565b610630565b6040516101c29190611a12565b60405180910390f35b3480156101d757600080fd5b506101e061064e565b6040516101ed9190611baf565b60405180910390f35b34801561020257600080fd5b5061021d6004803603810190610218919061139d565b610658565b005b34801561022b57600080fd5b5061024660048036038101906102419190611402565b6108c0565b6040516102539190611a12565b60405180910390f35b34801561026857600080fd5b506102716109b8565b60405161027e9190611bca565b60405180910390f35b34801561029357600080fd5b506102ae60048036038101906102a99190611451565b6109c1565b6040516102bb9190611a12565b60405180910390f35b3480156102d057600080fd5b506102d9610a6d565b6040516102e69190611baf565b60405180910390f35b3480156102fb57600080fd5b5061031660048036038101906103119190611374565b610a77565b6040516103239190611baf565b60405180910390f35b34801561033857600080fd5b50610353600480360381019061034e919061148d565b610abf565b60405161036091906119a5565b60405180910390f35b34801561037557600080fd5b5061037e610b2d565b60405161038b9190611a2d565b60405180910390f35b3480156103a057600080fd5b506103bb60048036038101906103b69190611374565b610bbf565b6040516103c89190611baf565b60405180910390f35b3480156103dd57600080fd5b506103f860048036038101906103f39190611451565b610c08565b6040516104059190611a12565b60405180910390f35b34801561041a57600080fd5b5061043560048036038101906104309190611451565b610cf3565b6040516104429190611a12565b60405180910390f35b34801561045757600080fd5b50610472600480360381019061046d9190611374565b610d11565b60405161047f9190611baf565b60405180910390f35b34801561049457600080fd5b506104af60048036038101906104aa91906113c6565b610d5a565b6040516104bc9190611baf565b60405180910390f35b3480156104d157600080fd5b506104da610de1565b6040516104e79190611baf565b60405180910390f35b600033905090565b60606003805461050790611df1565b80601f016020809104026020016040519081016040528092919081815260200182805461053390611df1565b80156105805780601f1061055557610100808354040283529160200191610580565b820191906000526020600020905b81548152906001019060200180831161056357829003601f168201915b5050505050905090565b60006103e83461059a9190611c93565b9050806105a630610a77565b10156105db577f4e487b7100000000000000000000000000000000000000000000000000000000600052600160045260246000fd5b7f6ef95f06320e7a25a04a175ca677b7052bdd97131872c2192525a629f51be7706106046104f0565b346040516106139291906119e9565b60405180910390a161062d306106276104f0565b83610deb565b50565b600061064461063d6104f0565b848461106c565b6001905092915050565b6000600254905090565b6000600760008373ffffffffffffffffffffffffffffffffffffffff1673ffffffffffffffffffffffffffffffffffffffff16815260200190815260200160002054116106da576040517f08c379a00000000000000000000000000000000000000000000000000000000081526004016106d190611aaf565b60405180910390fd5b6000600654476106ea9190611c0c565b90506000600860008473ffffffffffffffffffffffffffffffffffffffff1673ffffffffffffffffffffffffffffffffffffffff16815260200190815260200160002054600554600760008673ffffffffffffffffffffffffffffffffffffffff1673ffffffffffffffffffffffffffffffffffffffff168152602001908152602001600020548461077c9190611c93565b6107869190611c62565b6107909190611ced565b905060008114156107d6576040517f08c379a00000000000000000000000000000000000000000000000000000000081526004016107cd90611b0f565b60405180910390fd5b80600860008573ffffffffffffffffffffffffffffffffffffffff1673ffffffffffffffffffffffffffffffffffffffff168152602001908152602001600020546108219190611c0c565b600860008573ffffffffffffffffffffffffffffffffffffffff1673ffffffffffffffffffffffffffffffffffffffff16815260200190815260200160002081905550806006546108729190611c0c565b6006819055506108828382611237565b7fdf20fd1e76bc69d672e4814fafb2c449bba3a5369d8359adf9e05e6fde87b05683826040516108b39291906119c0565b60405180910390a1505050565b60006108cd848484610deb565b6000600160008673ffffffffffffffffffffffffffffffffffffffff1673ffffffffffffffffffffffffffffffffffffffff16815260200190815260200160002060006109186104f0565b73ffffffffffffffffffffffffffffffffffffffff1673ffffffffffffffffffffffffffffffffffffffff16815260200190815260200160002054905082811015610998576040517f08c379a000000000000000000000000000000000000000000000000000000000815260040161098f90611b2f565b60405180910390fd5b6109ac856109a46104f0565b85840361106c565b60019150509392505050565b60006012905090565b6000610a636109ce6104f0565b8484600160006109dc6104f0565b73ffffffffffffffffffffffffffffffffffffffff1673ffffffffffffffffffffffffffffffffffffffff16815260200190815260200160002060008873ffffffffffffffffffffffffffffffffffffffff1673ffffffffffffffffffffffffffffffffffffffff16815260200190815260200160002054610a5e9190611c0c565b61106c565b6001905092915050565b6000600554905090565b60008060008373ffffffffffffffffffffffffffffffffffffffff1673ffffffffffffffffffffffffffffffffffffffff168152602001908152602001600020549050919050565b600060098281548110610afb577f4e487b7100000000000000000000000000000000000000000000000000000000600052603260045260246000fd5b9060005260206000200160009054906101000a900473ffffffffffffffffffffffffffffffffffffffff169050919050565b606060048054610b3c90611df1565b80601f0160208091040260200160405190810160405280929190818152602001828054610b6890611df1565b8015610bb55780601f10610b8a57610100808354040283529160200191610bb5565b820191906000526020600020905b815481529060010190602001808311610b9857829003601f168201915b5050505050905090565b6000600860008373ffffffffffffffffffffffffffffffffffffffff1673ffffffffffffffffffffffffffffffffffffffff168152602001908152602001600020549050919050565b60008060016000610c176104f0565b73ffffffffffffffffffffffffffffffffffffffff1673ffffffffffffffffffffffffffffffffffffffff16815260200190815260200160002060008573ffffffffffffffffffffffffffffffffffffffff1673ffffffffffffffffffffffffffffffffffffffff16815260200190815260200160002054905082811015610cd4576040517f08c379a0000000000000000000000000000000000000000000000000000000008152600401610ccb90611b8f565b60405180910390fd5b610ce8610cdf6104f0565b8585840361106c565b600191505092915050565b6000610d07610d006104f0565b8484610deb565b6001905092915050565b6000600760008373ffffffffffffffffffffffffffffffffffffffff1673ffffffffffffffffffffffffffffffffffffffff168152602001908152602001600020549050919050565b6000600160008473ffffffffffffffffffffffffffffffffffffffff1673ffffffffffffffffffffffffffffffffffffffff16815260200190815260200160002060008373ffffffffffffffffffffffffffffffffffffffff1673ffffffffffffffffffffffffffffffffffffffff16815260200190815260200160002054905092915050565b6000600654905090565b600073ffffffffffffffffffffffffffffffffffffffff168373ffffffffffffffffffffffffffffffffffffffff161415610e5b576040517f08c379a0000000000000000000000000000000000000000000000000000000008152600401610e5290611b4f565b60405180910390fd5b600073ffffffffffffffffffffffffffffffffffffffff168273ffffffffffffffffffffffffffffffffffffffff161415610ecb576040517f08c379a0000000000000000000000000000000000000000000000000000000008152600401610ec290611a4f565b60405180910390fd5b610ed683838361132b565b60008060008573ffffffffffffffffffffffffffffffffffffffff1673ffffffffffffffffffffffffffffffffffffffff16815260200190815260200160002054905081811015610f5c576040517f08c379a0000000000000000000000000000000000000000000000000000000008152600401610f5390611a8f565b60405180910390fd5b8181036000808673ffffffffffffffffffffffffffffffffffffffff1673ffffffffffffffffffffffffffffffffffffffff16815260200190815260200160002081905550816000808573ffffffffffffffffffffffffffffffffffffffff1673ffffffffffffffffffffffffffffffffffffffff1681526020019081526020016000206000828254610fef9190611c0c565b925050819055508273ffffffffffffffffffffffffffffffffffffffff168473ffffffffffffffffffffffffffffffffffffffff167fddf252ad1be2c89b69c2b068fc378daa952ba7f163c4a11628f55a4df523b3ef846040516110539190611baf565b60405180910390a3611066848484611330565b50505050565b600073ffffffffffffffffffffffffffffffffffffffff168373ffffffffffffffffffffffffffffffffffffffff1614156110dc576040517f08c379a00000000000000000000000000000000000000000000000000000000081526004016110d390611b6f565b60405180910390fd5b600073ffffffffffffffffffffffffffffffffffffffff168273ffffffffffffffffffffffffffffffffffffffff16141561114c576040517f08c379a000000000000000000000000000000000000000000000000000000000815260040161114390611a6f565b60405180910390fd5b80600160008573ffffffffffffffffffffffffffffffffffffffff1673ffffffffffffffffffffffffffffffffffffffff16815260200190815260200160002060008473ffffffffffffffffffffffffffffffffffffffff1673ffffffffffffffffffffffffffffffffffffffff168152602001908152602001600020819055508173ffffffffffffffffffffffffffffffffffffffff168373ffffffffffffffffffffffffffffffffffffffff167f8c5be1e5ebec7d5bd14f71427d1e84f3dd0314c0f7b2291e5b200ac8c7c3b9258360405161122a9190611baf565b60405180910390a3505050565b8047101561127a576040517f08c379a000000000000000000000000000000000000000000000000000000000815260040161127190611aef565b60405180910390fd5b60008273ffffffffffffffffffffffffffffffffffffffff16826040516112a090611990565b60006040518083038185875af1925050503d80600081146112dd576040519150601f19603f3d011682016040523d82523d6000602084013e6112e2565b606091505b5050905080611326576040517f08c379a000000000000000000000000000000000000000000000000000000000815260040161131d90611acf565b60405180910390fd5b505050565b505050565b505050565b60008135905061134481611ec1565b92915050565b60008135905061135981611ed8565b92915050565b60008135905061136e81611eef565b92915050565b60006020828403121561138657600080fd5b600061139484828501611335565b91505092915050565b6000602082840312156113af57600080fd5b60006113bd8482850161134a565b91505092915050565b600080604083850312156113d957600080fd5b60006113e785828601611335565b92505060206113f885828601611335565b9150509250929050565b60008060006060848603121561141757600080fd5b600061142586828701611335565b935050602061143686828701611335565b92505060406114478682870161135f565b9150509250925092565b6000806040838503121561146457600080fd5b600061147285828601611335565b92505060206114838582860161135f565b9150509250929050565b60006020828403121561149f57600080fd5b60006114ad8482850161135f565b91505092915050565b6114bf81611d88565b82525050565b6114ce81611d21565b82525050565b6114dd81611d45565b82525050565b60006114ee82611be5565b6114f88185611bfb565b9350611508818560208601611dbe565b61151181611eb0565b840191505092915050565b6000611529602383611bfb565b91507f45524332303a207472616e7366657220746f20746865207a65726f206164647260008301527f65737300000000000000000000000000000000000000000000000000000000006020830152604082019050919050565b600061158f602283611bfb565b91507f45524332303a20617070726f766520746f20746865207a65726f20616464726560008301527f73730000000000000000000000000000000000000000000000000000000000006020830152604082019050919050565b60006115f5602683611bfb565b91507f45524332303a207472616e7366657220616d6f756e742065786365656473206260008301527f616c616e636500000000000000000000000000000000000000000000000000006020830152604082019050919050565b600061165b602683611bfb565b91507f5061796d656e7453706c69747465723a206163636f756e7420686173206e6f2060008301527f73686172657300000000000000000000000000000000000000000000000000006020830152604082019050919050565b60006116c1603a83611bfb565b91507f416464726573733a20756e61626c6520746f2073656e642076616c75652c207260008301527f6563697069656e74206d617920686176652072657665727465640000000000006020830152604082019050919050565b6000611727601d83611bfb565b91507f416464726573733a20696e73756666696369656e742062616c616e63650000006000830152602082019050919050565b6000611767602b83611bfb565b91507f5061796d656e7453706c69747465723a206163636f756e74206973206e6f742060008301527f647565207061796d656e740000000000000000000000000000000000000000006020830152604082019050919050565b60006117cd602883611bfb565b91507f45524332303a207472616e7366657220616d6f756e742065786365656473206160008301527f6c6c6f77616e63650000000000000000000000000000000000000000000000006020830152604082019050919050565b6000611833602583611bfb565b91507f45524332303a207472616e736665722066726f6d20746865207a65726f20616460008301527f64726573730000000000000000000000000000000000000000000000000000006020830152604082019050919050565b6000611899600083611bf0565b9150600082019050919050565b60006118b3602483611bfb565b91507f45524332303a20617070726f76652066726f6d20746865207a65726f2061646460008301527f72657373000000000000000000000000000000000000000000000000000000006020830152604082019050919050565b6000611919602583611bfb565b91507f45524332303a2064656372656173656420616c6c6f77616e63652062656c6f7760008301527f207a65726f0000000000000000000000000000000000000000000000000000006020830152604082019050919050565b61197b81611d71565b82525050565b61198a81611d7b565b82525050565b600061199b8261188c565b9150819050919050565b60006020820190506119ba60008301846114c5565b92915050565b60006040820190506119d560008301856114b6565b6119e26020830184611972565b9392505050565b60006040820190506119fe60008301856114c5565b611a0b6020830184611972565b9392505050565b6000602082019050611a2760008301846114d4565b92915050565b60006020820190508181036000830152611a4781846114e3565b905092915050565b60006020820190508181036000830152611a688161151c565b9050919050565b60006020820190508181036000830152611a8881611582565b9050919050565b60006020820190508181036000830152611aa8816115e8565b9050919050565b60006020820190508181036000830152611ac88161164e565b9050919050565b60006020820190508181036000830152611ae8816116b4565b9050919050565b60006020820190508181036000830152611b088161171a565b9050919050565b60006020820190508181036000830152611b288161175a565b9050919050565b60006020820190508181036000830152611b48816117c0565b9050919050565b60006020820190508181036000830152611b6881611826565b9050919050565b60006020820190508181036000830152611b88816118a6565b9050919050565b60006020820190508181036000830152611ba88161190c565b9050919050565b6000602082019050611bc46000830184611972565b92915050565b6000602082019050611bdf6000830184611981565b92915050565b600081519050919050565b600081905092915050565b600082825260208201905092915050565b6000611c1782611d71565b9150611c2283611d71565b9250827fffffffffffffffffffffffffffffffffffffffffffffffffffffffffffffffff03821115611c5757611c56611e23565b5b828201905092915050565b6000611c6d82611d71565b9150611c7883611d71565b925082611c8857611c87611e52565b5b828204905092915050565b6000611c9e82611d71565b9150611ca983611d71565b9250817fffffffffffffffffffffffffffffffffffffffffffffffffffffffffffffffff0483118215151615611ce257611ce1611e23565b5b828202905092915050565b6000611cf882611d71565b9150611d0383611d71565b925082821015611d1657611d15611e23565b5b828203905092915050565b6000611d2c82611d51565b9050919050565b6000611d3e82611d51565b9050919050565b60008115159050919050565b600073ffffffffffffffffffffffffffffffffffffffff82169050919050565b6000819050919050565b600060ff82169050919050565b6000611d9382611d9a565b9050919050565b6000611da582611dac565b9050919050565b6000611db782611d51565b9050919050565b60005b83811015611ddc578082015181840152602081019050611dc1565b83811115611deb576000848401525b50505050565b60006002820490506001821680611e0957607f821691505b60208210811415611e1d57611e1c611e81565b5b50919050565b7f4e487b7100000000000000000000000000000000000000000000000000000000600052601160045260246000fd5b7f4e487b7100000000000000000000000000000000000000000000000000000000600052601260045260246000fd5b7f4e487b7100000000000000000000000000000000000000000000000000000000600052602260045260246000fd5b6000601f19601f8301169050919050565b611eca81611d21565b8114611ed557600080fd5b50565b611ee181611d33565b8114611eec57600080fd5b50565b611ef881611d71565b8114611f0357600080fd5b5056fea2646970667358221220f0213c5e7240f6ef6a36d8439d893842aad349595a92fdbea4fde2706e7c288164736f6c63430008000033",
  "linkReferences": {},
  "deployedLinkReferences": {}
}